:100000000C942A000C943C000C943C000C943C0092
:100010000C943C000C943C000C943C000C943C0070
:100020000C943C000C943C000C943C000C943C0060
:100030000C943C000C943C000C943C000C943C0050
:100040000C943C000C943C000C943C000C943C0040
:100050000C943C0011241FBECFE5D8E0DEBFCDBF1D
:1000600020E0A0E6B0E001C01D92A036B207E1F7A3
:100070000E943E000C94FC000C940000CF93DF9390
:100080001F92CDB7DEB7198240E060E181E00E94A7
:10009000680040E060E281E00E94680041E060E4C6
:1000A00081E00E94680040E060E881E00E94680012
:1000B00064E080E00E94D10087E690E00E94EF00BB
:1000C000CE0101960E94F60089810E94DE00F8CFE1
:1000D0008130F9F030F08230A1F1833009F449C069
:1000E0000895413041F018F0423051F008958AB33C
:1000F000682B6ABB08958AB3609568236ABB08952C
:100100008AB3962F909589238ABB8BB3682B6BBBE0
:100110000895413041F018F0423051F0089587B30E
:10012000682B67BB089587B36095682367BB089504
:1001300087B3962F9095892387BB88B3682B68BBBC
:100140000895413041F018F0423051F0089584B3E1
:10015000682B64BB089584B36095682364BB0895DD
:1001600084B3962F9095892384BB85B3682B65BB98
:100170000895413041F018F0423051F0089581B3B4
:10018000682B61BB089581B36095682361BB0895B6
:1001900081B3962F9095892381BB82B3682B62BB74
:1001A000089524E0829FC001112480618DB960FF11
:1001B000709A8DB16695682B6DB908956E9A8FB956
:1001C00077990AC080E197E225E02A95F1F70000CF
:1001D000779902C00197C1F76E988FB10895549A2C
:1001E000539A26E820BD89B990BD08955F9B03C04E
:0C01F0002CB1FC0120830895F894FFCF8F
:00000001FF
