:100000000C942A000C943C000C943C000C943C0092
:100010000C943C000C943C000C943C000C943C0070
:100020000C943C000C943C000C943C000C943C0060
:100030000C943C000C943C000C943C000C943C0050
:100040000C943C000C943C000C943C000C943C0040
:100050000C943C0011241FBECFE5D8E0DEBFCDBF1D
:1000600020E0A0E6B0E001C01D92A036B207E1F7A3
:100070000E943E000C9460010C94000041E060E19D
:1000800081E00E949D0041E060E281E00E949D00CD
:1000900040E060E481E00E949D0041E060E881E092
:1000A0000E949D0064E080E00E94420140E061E027
:1000B00082E00E949D0040E062E082E00E949D009C
:1000C0000E9450018336B9F028F4813641F082361F
:1000D00061F028C08436A9F08536C9F023C041E01C
:1000E00061E082E00E940601EBCF40E061E082E047
:1000F0000E940601E5CF41E062E082E00E94060135
:10010000DFCF40E062E082E00E940601D9CF41E00B
:1001100061E082E00E94060141E062E082E00E942C
:100120000601CECF40E061E082E00E94060140E09F
:1001300062E082E00E940601C3CF8130F9F030F026
:100140008230A1F1833009F449C00895413041F073
:1001500018F0423051F008958AB3682B6ABB0895B5
:100160008AB3609568236ABB08958AB3962F9095E9
:1001700089238ABB8BB3682B6BBB0895413041F058
:1001800018F0423051F0089587B3682B67BB08958B
:1001900087B36095682367BB089587B3962F9095C2
:1001A000892387BB88B3682B68BB0895413041F031
:1001B00018F0423051F0089584B3682B64BB089561
:1001C00084B36095682364BB089584B3962F90959B
:1001D000892384BB85B3682B65BB0895413041F00A
:1001E00018F0423051F0089581B3682B61BB089537
:1001F00081B36095682361BB089581B3962F909574
:10020000892381BB82B3682B62BB0895813099F04A
:1002100028F08230E9F0833041F10895442331F031
:10022000413079F58BB3682B6BBB08958BB3609528
:1002300068236BBB0895442331F0413011F588B336
:10024000682B68BB089588B36095682368BB0895E0
:10025000442331F04130A9F485B3682B65BB089580
:1002600085B36095682365BB0895442331F0413020
:1002700041F482B3682B62BB089582B36095682312
:1002800062BB089524E0829FC001112480618DB972
:100290006C9860FF709A8DB16695682B6DB9089562
:1002A0006E9A77990AC080E197E225E02A95F1F7E6
:1002B0000000779902C00197C1F76E988FB1089539
:0402C000F894FFCFE0
:00000001FF
